:02000000C02915
:1000060083120313FB01FA01F901F801A001730D34
:10001600F80D7408F8027508031C750FF9027608C6
:10002600031C760FFA027708031C770FFB02000108
:10003600031C0130A002F30D0730FC00730DF80D10
:10004600F90DFA0DFB0DA00D7408731C3C28F8027F
:100056007508031C750FF9027608031C760FFA0261
:100066007708031C770FFB020001031C0130A00276
:100076004D28F80775080318750FF9077608031851
:10008600760FFA0777080318770FFB0700010318A6
:100096000130A007F30DFC0B2128720DF80DF90DA8
:1000A600FA0DFB0DA00D7408731C6B28F802750879
:1000B600031C750FF9027608031C760FFA027708FF
:1000C600031C770FFB020001031C0130A0027C28F1
:1000D600F80775080318750FF90776080318760FE1
:1000E600FA0777080318770FFB070001031801309A
:1000F600A007F20D0730FC00720DF80DF90DFA0D90
:10010600FB0DA00D7408721C9A28F8027508031CD2
:10011600750FF9027608031C760FFA027708031C9E
:10012600770FFB020001031C0130A002AB28F80781
:1001360075080318750FF90776080318760FFA077E
:1001460077080318770FFB07000103180130A00793
:10015600F20DFC0B7F28710DF80DF90DFA0DFB0D54
:10016600A00D7408721CC928F8027508031C750FC7
:10017600F9027608031C760FFA027708031C770F3C
:10018600FB020001031C0130A002DA28F8077508FB
:100196000318750FF90776080318760FFA0777081C
:1001A6000318770FFB07000103180130A007F10DB4
:1001B6000730FC00710DF80DF90DFA0DFB0DA00DC1
:1001C6007408711CF828F8027508031C750FF902EB
:1001D6007608031C760FFA027708031C770FFB02DA
:1001E6000001031C0130A0020929F807750803184D
:1001F600750FF90776080318760FFA0777080318BC
:10020600770FFB07000103180130A007F10DFC0B67
:10021600DD28700DF80DF90DFA0DFB0DA00D740813
:10022600711C2729F8027508031C750FF902760858
:10023600031C760FFA027708031C770FFB020001F6
:10024600031C0130A0023829F80775080318750F3A
:10025600F90776080318760FFA0777080318770F59
:10026600FB07000103180130A007F00D0730FC0062
:10027600700DF80DF90DFA0DFB0DA00D7408701C2C
:100286005629F8027508031C750FF9027608031C37
:10029600760FFA027708031C770FFB020001031C96
:1002A6000130A0026729F80775080318750FF907CA
:1002B60076080318760FFA0777080318770FFB07F7
:1002C600000103180130A007F00DFC0B3B29701844
:1002D6007A297408F80775080318750FF907760860
:1002E6000318760FFA0777080318770FFB0708003D
:1002F600063083120313F0002508F4002608F500E3
:100306002708F6002808F700700803199129F40D4C
:10031600F50DF60DF70D7410FF3E88290030F0003C
:100326002D30F1003130F2000130F300032070036C
:1003360083169900181283129817181683160C1232
:0E0346008C12181383121813831698160800D1
:10035400831203138C1AAF29AA298C121A08F100EC
:0E036400981CB629181218167108F00008002F
:0E0372000030831203138C1A0130F0000800D3
:1003800083120313A40183160317890188018312C2
:100390008813881BCD298713CE298717831603134B
:1003A00086018312240886008030A5002530A6002F
:1003B000A701A8017B210330FB008A30FC005530E7
:1003C000FD00FD0BE129FC0BE129FB0BE1290000FD
:1003D0000000B92170080319122AAA217008A3008D
:1003E0007008553A031D002A2408F100F10D711020
:1003F0007108A4007108003A031D002A0130A4000E
:100400002308443A031D102A2408F100F10CF113CB
:100410007108A4007108003A031D102A8030A4005E
:0804200024088600E929132AD3
:04400E00F22F000786
:00000001FF
